:04000000FEEF17F008
:1027CA00000EF86E0001F6EF13F0046E000E016EB3
:1027DA0003500BEC14F0010E016E04500BEC14F0D4
:1027EA0012009390939E8A6A62EC14F033EC16F00E
:1027FA00DB0E036E2F0E046E800E056EB2EC14F023
:10280A00EAEC15F0FDEF13F0FEEF17F0026E01B0DF
:10281A0011EF14F014EF14F0828215EF14F0829283
:10282A0002C083FF82848294958E828082928284FF
:10283A00829483BE23EF14F025EF14F01CEF14F0FA
:10284A008290959E12006150036E046AD8900336F6
:10285A000436D89003360436D890033604366238E4
:10286A00E842070B070B056E066A03500510076E50
:10287A0004500610086E07C001F008C002F01200EA
:10288A00000E016E000E026E000E036E000E046E44
:10289A00010E0126000E0222032204220450031014
:1028AA000BE1500E015CC30E0258D8A05FEF14F082
:1028BA0061EF14F04DEF14F01200939493861F0EFB
:1028CA006F166F8E800E6E18D8A46EEF14F070EF2C
:1028DA0014F067EF14F0776AE10E706E1B0E716EDA
:1028EA00030E726E0D01D46B1F0E6F166F50606A65
:1028FA00608A608C12000A500B10D8B487EF14F06B
:10290A0089EF14F0ADEF14F0010E0C6E91EF14F094
:10291A00D8900A360B360C2A0BAE96EF14F098EFC5
:10292A0014F08DEF14F00A50085C0B500958D8A027
:10293A00A1EF14F0A3EF14F0A7EF14F00A50085E09
:10294A000B50095AD8900B320A320C2E98EF14F019
:10295A0008C008F009C009F01200000E016E055007
:10296A000BEC14F0CFEF14F0010E016E03C0F6FF6A
:10297A0004C0F7FFF86A050EF76403D00800F550A3
:10298A0005D0F6CFE9FFF7CFEAFFEF500BEC14F0D2
:10299A00034A042A03C0F6FF04C0F7FFF86A050ECB
:1029AA00F76403D00800F55005D0F6CFE9FFF7CF5A
:1029BA00EAFFEF500009D8A4E5EF14F0E7EF14F0AE
:1029CA00B9EF14F01200066A000E056E03500410E7
:1029DA00D8B4F2EF14F0F4EF14F01CEF15F0010E76
:1029EA00076EFCEF14F0D89003360436072A04AEBB
:1029FA0001EF15F003EF15F0F8EF14F0D890053653
:102A0A0006360350015C04500258D8A00FEF15F0A7
:102A1A0011EF15F016EF15F00350015E0450025A3B
:102A2A000580D89004320332072E03EF15F005C053
:102A3A0001F006C002F012000550D96EDA6ADF50C2
:102A4A00076E0750D8A42CEF15F02EEF15F03AEFC9
:102A5A0015F0CE0E036E200EEAEC13F0CE0E036EC6
:102A6A004E0EEAEC13F060EF15F0060E0718D8A424
:102A7A0041EF15F043EF15F04AEF15F0CE0E036E55
:102A8A00520EEAEC13F060EF15F0070E0718D8A4FF
:102A9A0051EF15F053EF15F05AEF15F0CE0E036E05
:102AAA00430EEAEC13F060EF15F0CE0E036E0750FA
:102ABA00300FEAEC13F012000F50D96EDA6ADF50C9
:102ACA00156E046A640E036E15C001F0026A8DEC7D
:102ADA0017F001C009F002C00AF00C6A0A0E0B6E68
:102AEA00DDEC16F00950300F116E046A0A0E036EFF
:102AFA0015C001F0026A8DEC17F001C009F002C09E
:102B0A000AF00C6A0A0E0B6EDDEC16F00950300F53
:102B1A00126E15C009F00A6A0C6A0A0E0B6EDDEC19
:102B2A0016F00950300F136E146A110E036E046A00
:102B3A00CA0E056EB2EC14F0120060AEA7EF15F0E3
:102B4A00A9EF15F0E5EF15F028EC14F00950D96E4D
:102B5A00DA6A01C0DEFF02C0DDFF0B50D96EDA6A05
:102B6A0065CFDFFF660E0F6E0F0E106E126A000E33
:102B7A00116ECEEF15F011500F24D96E125010209D
:102B8A00DA6E0A501124E16EE26ADFCFE7FF114ADA
:102B9A00122A0B50D96EDA6ADF500C6E0D6A0C508D
:102BAA00115C1250800A0E6E0D50800A0E58D8A081
:102BBA00E1EF15F0E3EF15F0C0EF15F0609EA49079
:102BCA000B50D96EDA6ADF6A1200190E096E1C0EF2
:102BDA000A6E1B0E0B6EA2EC15F014EF16F01C0E0B
:102BEA000D6E1BC00EF086EC16F032EF16F01C0EBE
:102BFA000F6E1BC010F061EC15F032EF16F01C0ED0
:102C0A00056E1BC006F021EC15F032EF16F01C0E13
:102C1A00066E1BC007F034EC17F032EF16F019C03D
:102C2A0017F01AC018F01850000AD8B41FEF16F09F
:102C3A0032EF16F01750100AD8B4FCEF15F0300A2C
:102C4A00D8B404EF16F0100AD8B4F4EF15F0700AED
:102C5A00D8B40CEF16F032EF16F01200956A9450C1
:102C6A00F80B946E8290C30E036ECD0EE82EFED73B
:102C7A00032EFCD70000000E016E330E0BEC14F08D
:102C8A001B0E036E9E0EE82EFED7032EFCD700D035
:102C9A00000E016E330E0BEC14F0A60EE82EFED7D2
:102CAA0000D0000E016E330E0BEC14F000D000D0F1
:102CBA000000000E016E020E0BEC14F0A60EE82EB8
:102CCA00FED700D0000E016E380E0BEC14F0A60EE3
:102CDA00E82EFED700D0000E016E010E0BEC14F0A8
:102CEA00040E036E3E0EE82EFED7032EFCD7000E0E
:102CFA00016E0C0E0BEC14F0A60EE82EFED700D0D7
:102D0A0012000D50D96EDA6ADF500F6E0F503C0D6B
:102D1A00F3CF15F0F4CF16F015C001F016C002F08B
:102D2A00030E046EE80E036EE8EC14F00150300F47
:102D3A00106E046A640E036E15C001F016C002F02C
:102D4A00E8EC14F001C008F002C009F00B6A0A0EA0
:102D5A000A6E80EC14F00850300F116E046A0A0EE5
:102D6A00036E15C001F016C002F0E8EC14F001C0C1
:102D7A0008F002C009F00B6A0A0E0A6E80EC14F021
:102D8A000850300F126E15C008F016C009F00B6A11
:102D9A000A0E0A6E80EC14F00850300F136E146A93
:102DAA00100E036E046AC00E056EB2EC14F0120027
:102DBA000E6A0ABEE5EF16F0E3EF16F0EBEF16F037
:102DCA00096C0A1ED8B00A2A010E0E6E0CBEF2EF6A
:102DDA0016F0F0EF16F0F6EF16F00B6C0C1ED8B0EA
:102DEA000C2A0B500C10D8B4FDEF16F0FFEF16F0BA
:102DFA0023EF17F0010E0D6E07EF17F0D8900B3680
:102E0A000C360D2A0CAE0CEF17F00EEF17F003EF8D
:102E1A0017F00B50095C0C500A58D8A017EF17F09E
:102E2A0019EF17F01DEF17F00B50095E0C500A5AF4
:102E3A00D8900C320B320D2E0EEF17F00E50D8B47C
:102E4A0029EF17F02BEF17F02FEF17F0096C0A1E76
:102E5A00D8B00A2A09C009F00AC00AF012000650BE
:102E6A00D96EDA6ADF50086E7DEF17F0819E8170A5
:102E7A00F60E036E2F0E046EC50E056EB2EC14F03C
:102E8A00EF0E036E2F0E046EC80E056EB2EC14F030
:102E9A0045EC14F08CEF17F08190817EF20E036EF0
:102EAA002F0E046EC50E056EB2EC14F0EF0E036E13
:102EBA002F0E046EC80E056EB2EC14F04DEF17F02B
:102ECA00817E8170F10E036E2F0E046EC50E056EA3
:102EDA00B2EC14F04DEF17F0819E8190EC0E036E68
:102EEA002F0E046EC50E056EB2EC14F08CEF17F0BF
:102EFA000850010AD8B43BEF17F0030AD8B451EFCF
:102F0A0017F0010AD8B465EF17F071EF17F0120045
:102F1A00066A04BE95EF17F093EF17F09BEF17F0D0
:102F2A00036C041ED8B0042A010E066E02BEA2EF7C
:102F3A0017F0A0EF17F0A8EF17F0016C021ED8B037
:102F4A00022A010E061A086A000E076E03500410C0
:102F5A00D8B4B2EF17F0B4EF17F0DCEF17F0010EA8
:102F6A00056EBCEF17F0D89003360436052A04AE76
:102F7A00C1EF17F0C3EF17F0B8EF17F0D890073684
:102F8A0008360350015C04500258D8A0CFEF17F05E
:102F9A00D1EF17F0D6EF17F00350015E0450025A32
:102FAA000780D89004320332052EC3EF17F006507B
:102FBA00D8B4E2EF17F0E4EF17F0E8EF17F0076C78
:102FCA00081ED8B0082A07C001F008C002F0120093
:102FDA000052504D2020494E44202053504420474F
:102FEA00200020202020003C2D2D3E003C2D2D00CD
:012FFA0000D6
:042FFC00E5EF13F0FA
:020000040020DA
:08000000FFFFFFFFFFFFFFFF00
:020000040030CA
:0E000000FF071F1FFF8285FF0FC00FE00F409C
:00000001FF
