:04000000FEEF17F008
:1006000000001950800B266E195019242D6E18AE5B
:100610000CEF03F00EEF03F00FEF03F02D802D50E1
:10062000D8B415EF03F017EF03F02BEF03F02D28EC
:10063000D8A41DEF03F01FEF03F027EF03F0000E27
:10064000166E000E176E000E186E000E196E188EC4
:10065000196A33EF03F0000E166E000E176E000ECF
:10066000186E000E196E1D50800B261A1D501D2489
:100670002E6E1CAE3EEF03F040EF03F041EF03F0AF
:100680002E802E50D8B447EF03F049EF03F05DEF12
:1006900003F02E28D8A44FEF03F051EF03F059EFE9
:1006A00003F0000E1A6E000E1B6E000E1C6E000E84
:1006B0001D6E1C8E1D6A65EF03F0000E1A6E000E93
:1006C0001B6E000E1C6E000E1D6E1A501B101C10AF
:1006D0001D10D8A46EEF03F070EF03F088EF03F065
:1006E000000E166E000E176E000E186E000E196EBC
:1006F000800E18127F0E19122650191216C016F00D
:1007000017C017F018C018F019C019F0C7EF04F09F
:100710002D50D8A48EEF03F090EF03F09AEF03F082
:10072000000E166E000E176E000E186E000E196E7B
:10073000C7EF04F02E502DC01EF01F6A1E5E000E83
:100740001F5A7F0E1E24276E000E1F20286E16C013
:1007500022F017C023F018C024F019C025F0000EB5
:10076000166E000E176E000E186E000E196E000E3B
:10077000296E000E2A6E000E2B6E000E2C6E2E6A55
:10078000FAEF03F02E50D8B4C8EF03F0CAEF03F02D
:10079000E1EF03F0D8902236233624362536D89060
:1007A00016361736183619362CAED9EF03F0DBEFB4
:1007B00003F0DCEF03F01680D89029362A362B366A
:1007C0002C361A50225C1B5023581C5024581D50A4
:1007D0002558D8A0EEEF03F0F0EF03F0F9EF03F0A7
:1007E0002C8C1A50225E1B50235A1C50245A1D5028
:1007F000255A2E2A190E2E6400EF04F002EF04F0A1
:10080000C2EF03F02250231024102510D8B40BEFB0
:1008100004F00DEF04F025EF04F0298025EF04F03B
:10082000D89016361736183619362CAE1AEF04F053
:100830001CEF04F01DEF04F01680D89029362A36FC
:100840002B362C362706D8A0280618AE2AEF04F03F
:100850002CEF04F010EF04F02E6A2CAE32EF04F00F
:1008600034EF04F058EF04F0FF0E29141E6EFF0E53
:100870002A141F6EFF0E2B14206E7F0E2C14216E77
:100880001E501F1020102110D8B449EF04F04BEF78
:1008900004F04FEF04F0010E2E6E58EF04F016A096
:1008A00054EF04F056EF04F058EF04F04BEF04F06F
:1008B0002E50D8B45EEF04F060EF04F084EF04F043
:1008C000010E1626000E17221822192219A06BEF0E
:1008D00004F06DEF04F084EF04F016C01EF017C0B2
:1008E0001FF018C020F019C021F02134213220322D
:1008F0001F321E321EC016F01FC017F020C018F0A5
:1009000021C019F0274A282A28BE8FEF04F028506A
:1009100008E12728D8A08FEF04F091EF04F09CEFB6
:1009200004F0000E286E2768000E166E000E176E7B
:10093000000E186E000E196E28BEA9EF04F02850A4
:1009400006E12704D8B0A7EF04F0A9EF04F0B5EF53
:1009500004F0286A000E276E000E166E000E176E49
:10096000000E186E000E196E266A27C02DF02DA0FD
:10097000BCEF04F0BEEF04F0C1EF04F0188EC2EF3C
:1009800004F0189ED8902D30196E7CEF03F0120001
:10099000106E1050D8B4CFEF04F0D1EF04F0F3EFA5
:1009A00004F00BBED8EF04F0D6EF04F0F3EF04F040
:1009B00008C00CF009C00DF00AC00EF00BC00FF01B
:1009C0000C1E0D1E0E1E0F1E0C2A000E0D220E22D6
:1009D0000F220CC012F00DC013F00EC014F00FC0A7
:1009E00015F0FBEF04F008C012F009C013F00AC0C4
:1009F00014F00BC015F0085009100A100B10D8A401
:100A000004EF05F006EF05F010EF05F0000E086E9C
:100A1000000E096E000E0A6E000E0B6EA1EF05F0BF
:100A2000960E116E1AEF05F0112AD8901532143275
:100A300013321232000E12140C6E000E13140D6ECF
:100A4000000E14140E6EFE0E15140F6E0C500D10C9
:100A50000E100F10D8A42FEF05F031EF05F014EFB2
:100A600005F03FEF05F0112A010E1226000E1322A9
:100A700014221522D8901532143213321232000E7D
:100A800012140C6E000E13140D6E000E14140E6E64
:100A9000FF0E15140F6E0C500D100E100F10D8A471
:100AA00054EF05F056EF05F033EF05F05EEF05F07B
:100AB0001106D890123613361436153614BE63EF6D
:100AC00005F065EF05F06DEF05F0020E11606BEFBC
:100AD00005F06DEF05F058EF05F011B072EF05F07D
:100AE00074EF05F075EF05F0149ED890113211C027
:100AF0000CF00D6A0E6A0F6A0CC00FF00E6A0D6AD8
:100B00000C6A0C5012120D5013120E5014120F508A
:100B100015121050D8B48FEF05F091EF05F099EF52
:100B200005F00BBE98EF05F096EF05F099EF05F094
:100B3000158E12C008F013C009F014C00AF015C0D9
:100B40000BF0120031343234386E3850D8A4ABEF89
:100B500005F0ADEF05F0B7EF05F0000E2F6E000EBB
:100B6000306E000E316E000E326E24EF06F02FC094
:100B700033F030C034F031C035F032C036F0200EE2
:100B8000C7EF05F0D8903632353234323332E82EA2
:100B9000C2EF05F03350376E318EFF0E2F16FF0E69
:100BA0003016FF0E3116000E3216960E385E38BE25
:100BB000DEEF05F0DCEF05F0F4EF05F03850800AC9
:100BC000970FD8B0E6EF05F0E8EF05F0EAEF05F093
:100BD000ADEF05F0D8903232313230322F32383E1C
:100BE000EAEF05F00CEF06F01F0E3864FAEF05F09F
:100BF000FCEF05F004EF06F0ADEF05F0D8902F36CE
:100C000030363136323638063850D8A40AEF06F07E
:100C10000CEF06F0FEEF05F03750D8B412EF06F0F7
:100C200014EF06F01CEF06F0321E311E301E2F6C42
:100C3000000E3022312232222FC02FF030C030F08F
:100C400031C031F032C032F01200BCEC07F00CECD5
:100C500007F039C047F03AC048F0066A300E056E1A
:100C6000470E076E010E086E9FEC06F03E6A640E9A
:100C70003D6E3D06D8A03E063D2806E13E28D8A49C
:100C800044EF06F046EF06F039EF06F0D6EC06F03A
:100C9000066A400E056E490E076E010E086E9FEC47
:100CA00006F0406AC80E3F6E3F06D8A040063F28B7
:100CB00006E14028D8A45FEF06F061EF06F054EF9C
:100CC00006F027EF06F0FEEF17F0016E0104D8A43E
:100CD0006CEF06F06EEF06F093EF06F082500F0B0C
:100CE0000F0AD8B476EF06F078EF06F085EF06F03D
:100CF0004A50D8B47EEF06F080EF06F085EF06F09C
:100D00004A6A82500F0B9EEF06F082500F0B0F0ABB
:100D1000D8A48DEF06F08FEF06F09DEF06F0010EE0
:100D20004A6E9DEF06F00150D8A499EF06F09BEFB4
:100D300006F09DEF06F081EF06F0FF0E12000F01A6
:100D4000436B446B05C001F006C002F07EEC07F077
:100D500008C045FF460E0C6E0F0E0D6E0F6A000E9A
:100D60000E6EC1EF06F007500E24D96EDA6A0E50EF
:100D70000C24E16E0F500D20E26EDFCFE7FF0E4A2C
:100D80000F2A0850096E0A6A09500E5C0F50800A3B
:100D90000B6E0A50800A0B58D8A0D1EF06F0D3EFA3
:100DA00006F0B3EF06F00F0140871200010E65EC6C
:100DB00006F0026E0E0E0218D8A4E1EF06F0E3EF83
:100DC00006F0E7EF06F0010E496E0BEF07F00D0E8F
:100DD0000218D8A4EEEF06F0F0EF06F0F4EF06F0FC
:100DE000020E496E0BEF07F00B0E0218D8A4FBEFB2
:100DF00006F0FDEF06F001EF07F0030E496E0BEF72
:100E000007F0070E0218D8A408EF07F00AEF07F062
:100E10000BEF07F0496A1200140E1A6EAE0E1B6E2D
:100E2000230E1C6E410E1D6E040E3DEC07F001C03A
:100E300008F002C009F00A6A0B6A000EC8EC04F060
:100E400008C016F009C017F00AC018F00BC019F05E
:100E500001EC03F016C02FF017C030F018C031F0CD
:100E600019C032F0A2EC05F02FC03BF030C03CF0CE
:100E70003BC039F03CC03AF01200076E07C003F0E7
:100E8000D8900336D8900336C250C30B0310C26EFD
:100E9000C282C2B24EEF07F050EF07F049EF07F001
:100EA000C350C4CF03F0046A03C004F0036A031004
:100EB000056E0450066E05C001F006C002F0120077
:100EC000939493861F0E6F166F8E800E6E18D8A4A3
:100ED0006CEF07F06EEF07F065EF07F0776AE10E51
:100EE000706E1B0E716E030E726E0D01D46B1F0EB1
:100EF0006F166F50606A608A608C120001C003F048
:100F0000070E0316050E046ED8900336042E84EFE8
:100F100007F003500F01426F01C003F002C004F05C
:100F2000D89004320332D89004320332D89004327D
:100F300003320350416F1200000EF66E300EF76E52
:100F4000000EF86E0900F5CF4AF000EE41F0090EF0
:100F5000EE6AE806FDE1000125EF06F0C08EC09ABA
:100F6000C088C096C090C082C094C292C19AC198F5
:100F7000C46AC36AC2801200936A816A60EC07F097
:0C0F8000010E65EC06F0AEEC07F012006C
:052FFC009CEF07F0014D
:020000040020DA
:08000000FFFFFFFFFFFFFFFF00
:020000040030CA
:0E000000FF071F1FFF8285FF0FC00FE00F409C
:00000001FF
